{
  "contractName": "ConciseCharityCoin",
  "abi": [
    {
      "inputs": [],
      "payable": false,
      "stateMutability": "nonpayable",
      "type": "constructor"
    },
    {
      "constant": false,
      "inputs": [
        {
          "internalType": "address",
          "name": "_address",
          "type": "address"
        }
      ],
      "name": "createAccount",
      "outputs": [
        {
          "internalType": "bool",
          "name": "",
          "type": "bool"
        }
      ],
      "payable": false,
      "stateMutability": "nonpayable",
      "type": "function"
    },
    {
      "constant": true,
      "inputs": [
        {
          "internalType": "address",
          "name": "_beneficiaryAddress",
          "type": "address"
        }
      ],
      "name": "balanceOf",
      "outputs": [
        {
          "internalType": "uint256",
          "name": "",
          "type": "uint256"
        }
      ],
      "payable": false,
      "stateMutability": "view",
      "type": "function"
    }
  ],
  "bytecode": "0x608060405234801561001057600080fd5b506101b6806100206000396000f3fe608060405234801561001057600080fd5b50600436106100365760003560e01c806370a082311461003b5780639859387b14610093575b600080fd5b61007d6004803603602081101561005157600080fd5b81019080803573ffffffffffffffffffffffffffffffffffffffff1690602001909291905050506100ef565b6040518082815260200191505060405180910390f35b6100d5600480360360208110156100a957600080fd5b81019080803573ffffffffffffffffffffffffffffffffffffffff169060200190929190505050610137565b604051808215151515815260200191505060405180910390f35b60008060008373ffffffffffffffffffffffffffffffffffffffff1673ffffffffffffffffffffffffffffffffffffffff168152602001908152602001600020549050919050565b6000806000808473ffffffffffffffffffffffffffffffffffffffff1673ffffffffffffffffffffffffffffffffffffffff1681526020019081526020016000208190555091905056fea265627a7a723158200ac340affc236429e682502c70b6191dfaac330c0db955284bac468a0735ba9664736f6c63430005100032",
  "source": "pragma solidity >= 0.5.0 < 0.7.0;\n\ncontract ConciseCharityCoin {\n  mapping (address => uint256) balances;\n  \n  constructor() public {\n\n  }\n\n  function createAccount(address _address) public returns (bool) {\n    balances[_address] = 0;\n  }\n\n  function balanceOf(address _beneficiaryAddress) public view returns (uint256) {\n    return balances[_beneficiaryAddress];\n  }\n}\n",
  "sourcePath": "D:\\University\\SimpleReactContract\\contracts\\ConciseCharityCoin.sol",
  "compiler": {
    "name": "solc",
    "version": "0.5.16+commit.9c3226ce.Emscripten.clang"
  },
  "schemaVersion": "3.0.23",
  "updatedAt": "2020-02-07T08:31:08.665Z",
  "networkType": "ethereum",
  "devdoc": {
    "methods": {}
  },
  "userdoc": {
    "methods": {}
  }
}